{
  "contractName": "TenderBidding",
  "abi": [
    {
      "anonymous": false,
      "inputs": [
        {
          "indexed": false,
          "internalType": "string",
          "name": "tenderKey",
          "type": "string"
        },
        {
          "indexed": false,
          "internalType": "address",
          "name": "winner",
          "type": "address"
        },
        {
          "indexed": false,
          "internalType": "uint256",
          "name": "lowestBid",
          "type": "uint256"
        }
      ],
      "name": "TenderClosed",
      "type": "event"
    },
    {
      "anonymous": false,
      "inputs": [
        {
          "indexed": false,
          "internalType": "string",
          "name": "tenderKey",
          "type": "string"
        },
        {
          "indexed": false,
          "internalType": "uint256",
          "name": "baseAmount",
          "type": "uint256"
        }
      ],
      "name": "TenderCreated",
      "type": "event"
    },
    {
      "inputs": [
        {
          "internalType": "address",
          "name": "",
          "type": "address"
        }
      ],
      "name": "admins",
      "outputs": [
        {
          "internalType": "bool",
          "name": "",
          "type": "bool"
        }
      ],
      "stateMutability": "view",
      "type": "function",
      "constant": true
    },
    {
      "inputs": [
        {
          "internalType": "address",
          "name": "",
          "type": "address"
        }
      ],
      "name": "bidderNames",
      "outputs": [
        {
          "internalType": "string",
          "name": "",
          "type": "string"
        }
      ],
      "stateMutability": "view",
      "type": "function",
      "constant": true
    },
    {
      "inputs": [
        {
          "internalType": "address",
          "name": "",
          "type": "address"
        },
        {
          "internalType": "uint256",
          "name": "",
          "type": "uint256"
        }
      ],
      "name": "bidderTenders",
      "outputs": [
        {
          "internalType": "string",
          "name": "",
          "type": "string"
        }
      ],
      "stateMutability": "view",
      "type": "function",
      "constant": true
    },
    {
      "inputs": [
        {
          "internalType": "uint256",
          "name": "",
          "type": "uint256"
        }
      ],
      "name": "tenderKeys",
      "outputs": [
        {
          "internalType": "string",
          "name": "",
          "type": "string"
        }
      ],
      "stateMutability": "view",
      "type": "function",
      "constant": true
    },
    {
      "inputs": [
        {
          "internalType": "string",
          "name": "",
          "type": "string"
        }
      ],
      "name": "tenders",
      "outputs": [
        {
          "internalType": "string",
          "name": "uniqueKey",
          "type": "string"
        },
        {
          "internalType": "bool",
          "name": "isClosed",
          "type": "bool"
        },
        {
          "internalType": "address",
          "name": "winner",
          "type": "address"
        },
        {
          "internalType": "uint256",
          "name": "lowestBid",
          "type": "uint256"
        },
        {
          "internalType": "uint256",
          "name": "baseAmount",
          "type": "uint256"
        }
      ],
      "stateMutability": "view",
      "type": "function",
      "constant": true
    },
    {
      "inputs": [
        {
          "internalType": "string",
          "name": "_name",
          "type": "string"
        }
      ],
      "name": "createAdmin",
      "outputs": [],
      "stateMutability": "nonpayable",
      "type": "function"
    },
    {
      "inputs": [
        {
          "internalType": "string",
          "name": "_name",
          "type": "string"
        }
      ],
      "name": "registerBidder",
      "outputs": [],
      "stateMutability": "nonpayable",
      "type": "function"
    },
    {
      "inputs": [
        {
          "internalType": "string",
          "name": "_latitude",
          "type": "string"
        },
        {
          "internalType": "string",
          "name": "_longitude",
          "type": "string"
        },
        {
          "internalType": "uint256",
          "name": "_baseAmount",
          "type": "uint256"
        }
      ],
      "name": "createTender",
      "outputs": [],
      "stateMutability": "nonpayable",
      "type": "function"
    },
    {
      "inputs": [
        {
          "internalType": "string",
          "name": "_tenderKey",
          "type": "string"
        },
        {
          "internalType": "uint256",
          "name": "_amount",
          "type": "uint256"
        }
      ],
      "name": "placeBid",
      "outputs": [],
      "stateMutability": "nonpayable",
      "type": "function"
    },
    {
      "inputs": [
        {
          "internalType": "string",
          "name": "_tenderKey",
          "type": "string"
        }
      ],
      "name": "closeTender",
      "outputs": [],
      "stateMutability": "nonpayable",
      "type": "function"
    },
    {
      "inputs": [],
      "name": "listOpenTenders",
      "outputs": [
        {
          "internalType": "string[]",
          "name": "",
          "type": "string[]"
        },
        {
          "internalType": "uint256[]",
          "name": "",
          "type": "uint256[]"
        }
      ],
      "stateMutability": "view",
      "type": "function",
      "constant": true
    },
    {
      "inputs": [],
      "name": "listClosedTenders",
      "outputs": [
        {
          "internalType": "string[]",
          "name": "",
          "type": "string[]"
        },
        {
          "internalType": "string[]",
          "name": "",
          "type": "string[]"
        },
        {
          "internalType": "uint256[]",
          "name": "",
          "type": "uint256[]"
        }
      ],
      "stateMutability": "view",
      "type": "function",
      "constant": true
    }
  ],
  "bytecode": "0x608060405234801561001057600080fd5b50612e14806100206000396000f3fe608060405234801561001057600080fd5b50600436106100b45760003560e01c8063792f58ff11610071578063792f58ff146101a05780637bfc60e4146101bc578063907dbc1d146101ec578063997b737f14610208578063a7eaa2411461023c578063c33ab4ad14610258576100b4565b806312209d0d146100b957806316b5e206146100d85780632678c68d1461010857806331c0e45a14610124578063380e857614610154578063429b62e514610170575b600080fd5b6100c1610278565b6040516100cf92919061274d565b60405180910390f35b6100f260048036038101906100ed919061219e565b610683565b6040516100ff919061279f565b60405180910390f35b610122600480360381019061011d919061208a565b61072f565b005b61013e60048036038101906101399190612025565b61086c565b60405161014b919061279f565b60405180910390f35b61016e6004803603810190610169919061208a565b61090c565b005b61018a60048036038101906101859190612025565b6109f1565b6040516101979190612784565b60405180910390f35b6101ba60048036038101906101b5919061208a565b610a11565b005b6101d660048036038101906101d1919061204e565b610c06565b6040516101e3919061279f565b60405180910390f35b610206600480360381019061020191906120cb565b610cbf565b005b610222600480360381019061021d919061208a565b610ee5565b6040516102339594939291906127ff565b60405180910390f35b6102566004803603810190610251919061214a565b610fe6565b005b610260611510565b60405161026f93929190612701565b60405180910390f35b6060806000805b600180549050811015610324576000600182815481106102c8577f4e487b7100000000000000000000000000000000000000000000000000000000600052603260045260246000fd5b906000526020600020016040516102df91906126ea565b908152602001604051809103902060010160009054906101000a900460ff1661031157818061030d90612c9a565b9250505b808061031c90612c9a565b91505061027f565b5060008167ffffffffffffffff811115610367577f4e487b7100000000000000000000000000000000000000000000000000000000600052604160045260246000fd5b60405190808252806020026020018201604052801561039a57816020015b60608152602001906001900390816103855790505b50905060008267ffffffffffffffff8111156103df577f4e487b7100000000000000000000000000000000000000000000000000000000600052604160045260246000fd5b60405190808252806020026020018201604052801561040d5781602001602082028036833780820191505090505b5090506000805b6001805490508110156106745760006001828154811061045d577f4e487b7100000000000000000000000000000000000000000000000000000000600052603260045260246000fd5b9060005260206000200160405161047491906126ea565b908152602001604051809103902060010160009054906101000a900460ff1661066157600181815481106104d1577f4e487b7100000000000000000000000000000000000000000000000000000000600052603260045260246000fd5b9060005260206000200180546104e690612c68565b80601f016020809104026020016040519081016040528092919081815260200182805461051290612c68565b801561055f5780601f106105345761010080835404028352916020019161055f565b820191906000526020600020905b81548152906001019060200180831161054257829003601f168201915b505050505084838151811061059d577f4e487b7100000000000000000000000000000000000000000000000000000000600052603260045260246000fd5b60200260200101819052506000600182815481106105e4577f4e487b7100000000000000000000000000000000000000000000000000000000600052603260045260246000fd5b906000526020600020016040516105fb91906126ea565b908152602001604051809103902060030154838381518110610646577f4e487b7100000000000000000000000000000000000000000000000000000000600052603260045260246000fd5b602002602001018181525050818061065d90612c9a565b9250505b808061066c90612c9a565b915050610414565b50828295509550505050509091565b6001818154811061069357600080fd5b9060005260206000200160009150905080546106ae90612c68565b80601f01602080910402602001604051908101604052809291908181526020018280546106da90612c68565b80156107275780601f106106fc57610100808354040283529160200191610727565b820191906000526020600020905b81548152906001019060200180831161070a57829003601f168201915b505050505081565b6000600260003373ffffffffffffffffffffffffffffffffffffffff1673ffffffffffffffffffffffffffffffffffffffff168152602001908152602001600020805461077b90612c68565b9050146107bd576040517f08c379a00000000000000000000000000000000000000000000000000000000081526004016107b490612949565b60405180910390fd5b6001600360003373ffffffffffffffffffffffffffffffffffffffff1673ffffffffffffffffffffffffffffffffffffffff16815260200190815260200160002060006101000a81548160ff02191690831515021790555080600260003373ffffffffffffffffffffffffffffffffffffffff1673ffffffffffffffffffffffffffffffffffffffff1681526020019081526020016000209080519060200190610868929190611e63565b5050565b6002602052806000526040600020600091509050805461088b90612c68565b80601f01602080910402602001604051908101604052809291908181526020018280546108b790612c68565b80156109045780601f106108d957610100808354040283529160200191610904565b820191906000526020600020905b8154815290600101906020018083116108e757829003601f168201915b505050505081565b6000600260003373ffffffffffffffffffffffffffffffffffffffff1673ffffffffffffffffffffffffffffffffffffffff168152602001908152602001600020805461095890612c68565b90501461099a576040517f08c379a0000000000000000000000000000000000000000000000000000000008152600401610991906128c9565b60405180910390fd5b80600260003373ffffffffffffffffffffffffffffffffffffffff1673ffffffffffffffffffffffffffffffffffffffff16815260200190815260200160002090805190602001906109ed929190611e63565b5050565b60036020528060005260406000206000915054906101000a900460ff1681565b600360003373ffffffffffffffffffffffffffffffffffffffff1673ffffffffffffffffffffffffffffffffffffffff16815260200190815260200160002060009054906101000a900460ff16610a9d576040517f08c379a0000000000000000000000000000000000000000000000000000000008152600401610a9490612969565b60405180910390fd5b8060008082604051610aaf91906126a4565b90815260200160405180910390206000018054610acb90612c68565b90501415610b0e576040517f08c379a0000000000000000000000000000000000000000000000000000000008152600401610b0590612929565b60405180910390fd5b60008083604051610b1f91906126a4565b908152602001604051809103902090508060010160009054906101000a900460ff1615610b81576040517f08c379a0000000000000000000000000000000000000000000000000000000008152600401610b78906128a9565b60405180910390fd5b60018160010160006101000a81548160ff0219169083151502179055507f1ce78ab40e4dd283068f088255c9dcf4894c9e35b472db89410e2f0bc4cbf58e838260010160019054906101000a900473ffffffffffffffffffffffffffffffffffffffff168360020154604051610bf9939291906127c1565b60405180910390a1505050565b60046020528160005260406000208181548110610c2257600080fd5b90600052602060002001600091509150508054610c3e90612c68565b80601f0160208091040260200160405190810160405280929190818152602001828054610c6a90612c68565b8015610cb75780601f10610c8c57610100808354040283529160200191610cb7565b820191906000526020600020905b815481529060010190602001808311610c9a57829003601f168201915b505050505081565b600360003373ffffffffffffffffffffffffffffffffffffffff1673ffffffffffffffffffffffffffffffffffffffff16815260200190815260200160002060009054906101000a900460ff16610d4b576040517f08c379a0000000000000000000000000000000000000000000000000000000008152600401610d4290612969565b60405180910390fd5b60008383604051602001610d609291906126bb565b604051602081830303815290604052905060008082604051610d8291906126a4565b90815260200160405180910390206000018054610d9e90612c68565b905014610de0576040517f08c379a0000000000000000000000000000000000000000000000000000000008152600401610dd7906128e9565b60405180910390fd5b60008082604051610df191906126a4565b9081526020016040518091039020905081816000019080519060200190610e19929190611e63565b5060008160010160006101000a81548160ff0219169083151502179055507fffffffffffffffffffffffffffffffffffffffffffffffffffffffffffffffff8160020181905550828160030181905550600182908060018154018082558091505060019003906000526020600020016000909190919091509080519060200190610ea4929190611e63565b507fe21989ee2249f0934978d12e665f98fd40fc4bbeba0432250075da885e9cb8ea8284604051610ed6929190612859565b60405180910390a15050505050565b600081805160208101820180518482526020830160208501208183528095505050505050600091509050806000018054610f1e90612c68565b80601f0160208091040260200160405190810160405280929190818152602001828054610f4a90612c68565b8015610f975780601f10610f6c57610100808354040283529160200191610f97565b820191906000526020600020905b815481529060010190602001808311610f7a57829003601f168201915b5050505050908060010160009054906101000a900460ff16908060010160019054906101000a900473ffffffffffffffffffffffffffffffffffffffff16908060020154908060030154905085565b8160008082604051610ff891906126a4565b9081526020016040518091039020600001805461101490612c68565b90501415611057576040517f08c379a000000000000000000000000000000000000000000000000000000000815260040161104e90612929565b60405180910390fd5b6000808460405161106891906126a4565b908152602001604051809103902090508060010160009054906101000a900460ff16156110ca576040517f08c379a00000000000000000000000000000000000000000000000000000000081526004016110c190612909565b60405180910390fd5b6000600260003373ffffffffffffffffffffffffffffffffffffffff1673ffffffffffffffffffffffffffffffffffffffff168152602001908152602001600020805461111690612c68565b905011611158576040517f08c379a000000000000000000000000000000000000000000000000000000000815260040161114f90612889565b60405180910390fd5b6064606e826003015461116b9190612b50565b6111759190612b1f565b8311156111b7576040517f08c379a00000000000000000000000000000000000000000000000000000000081526004016111ae90612989565b60405180910390fd5b806004016040518060400160405280600260003373ffffffffffffffffffffffffffffffffffffffff1673ffffffffffffffffffffffffffffffffffffffff168152602001908152602001600020805461121090612c68565b80601f016020809104026020016040519081016040528092919081815260200182805461123c90612c68565b80156112895780601f1061125e57610100808354040283529160200191611289565b820191906000526020600020905b81548152906001019060200180831161126c57829003601f168201915b5050505050815260200185815250908060018154018082558091505060019003906000526020600020906002020160009091909190915060008201518160000190805190602001906112dc929190611e63565b506020820151816001015550506112f281611b2b565b806002015483101561134b57828160020181905550338160010160016101000a81548173ffffffffffffffffffffffffffffffffffffffff021916908373ffffffffffffffffffffffffffffffffffffffff1602179055505b6000805b600460003373ffffffffffffffffffffffffffffffffffffffff1673ffffffffffffffffffffffffffffffffffffffff1681526020019081526020016000208054905081101561148957856040516020016113aa91906126a4565b60405160208183030381529060405280519060200120600460003373ffffffffffffffffffffffffffffffffffffffff1673ffffffffffffffffffffffffffffffffffffffff1681526020019081526020016000208281548110611437577f4e487b7100000000000000000000000000000000000000000000000000000000600052603260045260246000fd5b9060005260206000200160405160200161145191906126ea565b6040516020818303038152906040528051906020012014156114765760019150611489565b808061148190612c9a565b91505061134f565b508061150957600460003373ffffffffffffffffffffffffffffffffffffffff1673ffffffffffffffffffffffffffffffffffffffff16815260200190815260200160002085908060018154018082558091505060019003906000526020600020016000909190919091509080519060200190611507929190611e63565b505b5050505050565b60608060606000805b6001805490508110156115bf57600060018281548110611562577f4e487b7100000000000000000000000000000000000000000000000000000000600052603260045260246000fd5b9060005260206000200160405161157991906126ea565b908152602001604051809103902060010160009054906101000a900460ff16156115ac5781806115a890612c9a565b9250505b80806115b790612c9a565b915050611519565b5060008167ffffffffffffffff811115611602577f4e487b7100000000000000000000000000000000000000000000000000000000600052604160045260246000fd5b60405190808252806020026020018201604052801561163557816020015b60608152602001906001900390816116205790505b50905060008267ffffffffffffffff81111561167a577f4e487b7100000000000000000000000000000000000000000000000000000000600052604160045260246000fd5b6040519080825280602002602001820160405280156116ad57816020015b60608152602001906001900390816116985790505b50905060008367ffffffffffffffff8111156116f2577f4e487b7100000000000000000000000000000000000000000000000000000000600052604160045260246000fd5b6040519080825280602002602001820160405280156117205781602001602082028036833780820191505090505b5090506000805b600180549050811015611b1757600060018281548110611770577f4e487b7100000000000000000000000000000000000000000000000000000000600052603260045260246000fd5b9060005260206000200160405161178791906126ea565b908152602001604051809103902060010160009054906101000a900460ff1615611b0457600181815481106117e5577f4e487b7100000000000000000000000000000000000000000000000000000000600052603260045260246000fd5b9060005260206000200180546117fa90612c68565b80601f016020809104026020016040519081016040528092919081815260200182805461182690612c68565b80156118735780601f1061184857610100808354040283529160200191611873565b820191906000526020600020905b81548152906001019060200180831161185657829003601f168201915b50505050508583815181106118b1577f4e487b7100000000000000000000000000000000000000000000000000000000600052603260045260246000fd5b60200260200101819052506002600080600184815481106118fb577f4e487b7100000000000000000000000000000000000000000000000000000000600052603260045260246000fd5b9060005260206000200160405161191291906126ea565b908152602001604051809103902060010160019054906101000a900473ffffffffffffffffffffffffffffffffffffffff1673ffffffffffffffffffffffffffffffffffffffff1673ffffffffffffffffffffffffffffffffffffffff168152602001908152602001600020805461198990612c68565b80601f01602080910402602001604051908101604052809291908181526020018280546119b590612c68565b8015611a025780601f106119d757610100808354040283529160200191611a02565b820191906000526020600020905b8154815290600101906020018083116119e557829003601f168201915b5050505050848381518110611a40577f4e487b7100000000000000000000000000000000000000000000000000000000600052603260045260246000fd5b6020026020010181905250600060018281548110611a87577f4e487b7100000000000000000000000000000000000000000000000000000000600052603260045260246000fd5b90600052602060002001604051611a9e91906126ea565b908152602001604051809103902060020154838381518110611ae9577f4e487b7100000000000000000000000000000000000000000000000000000000600052603260045260246000fd5b6020026020010181815250508180611b0090612c9a565b9250505b8080611b0f90612c9a565b915050611727565b508383839750975097505050505050909192565b60008160040180549050905060005b600182611b479190612baa565b811015611e5e576000600182611b5d9190612ac9565b90505b82811015611e4a57836004018181548110611ba4577f4e487b7100000000000000000000000000000000000000000000000000000000600052603260045260246000fd5b906000526020600020906002020160010154846004018381548110611bf2577f4e487b7100000000000000000000000000000000000000000000000000000000600052603260045260246000fd5b9060005260206000209060020201600101541115611e37576000846004018381548110611c48577f4e487b7100000000000000000000000000000000000000000000000000000000600052603260045260246000fd5b9060005260206000209060020201604051806040016040529081600082018054611c7190612c68565b80601f0160208091040260200160405190810160405280929190818152602001828054611c9d90612c68565b8015611cea5780601f10611cbf57610100808354040283529160200191611cea565b820191906000526020600020905b815481529060010190602001808311611ccd57829003601f168201915b505050505081526020016001820154815250509050846004018281548110611d3b577f4e487b7100000000000000000000000000000000000000000000000000000000600052603260045260246000fd5b9060005260206000209060020201856004018481548110611d85577f4e487b7100000000000000000000000000000000000000000000000000000000600052603260045260246000fd5b90600052602060002090600202016000820181600001908054611da790612c68565b611db2929190611ee9565b506001820154816001015590505080856004018381548110611dfd577f4e487b7100000000000000000000000000000000000000000000000000000000600052603260045260246000fd5b90600052602060002090600202016000820151816000019080519060200190611e27929190611e63565b5060208201518160010155905050505b8080611e4290612c9a565b915050611b60565b508080611e5690612c9a565b915050611b3a565b505050565b828054611e6f90612c68565b90600052602060002090601f016020900481019282611e915760008555611ed8565b82601f10611eaa57805160ff1916838001178555611ed8565b82800160010185558215611ed8579182015b82811115611ed7578251825591602001919060010190611ebc565b5b509050611ee59190611f76565b5090565b828054611ef590612c68565b90600052602060002090601f016020900481019282611f175760008555611f65565b82601f10611f285780548555611f65565b82800160010185558215611f6557600052602060002091601f016020900482015b82811115611f64578254825591600101919060010190611f49565b5b509050611f729190611f76565b5090565b5b80821115611f8f576000816000905550600101611f77565b5090565b6000611fa6611fa1846129da565b6129a9565b905082815260208101848484011115611fbe57600080fd5b611fc9848285612c26565b509392505050565b600081359050611fe081612db0565b92915050565b600082601f830112611ff757600080fd5b8135612007848260208601611f93565b91505092915050565b60008135905061201f81612dc7565b92915050565b60006020828403121561203757600080fd5b600061204584828501611fd1565b91505092915050565b6000806040838503121561206157600080fd5b600061206f85828601611fd1565b925050602061208085828601612010565b9150509250929050565b60006020828403121561209c57600080fd5b600082013567ffffffffffffffff8111156120b657600080fd5b6120c284828501611fe6565b91505092915050565b6000806000606084860312156120e057600080fd5b600084013567ffffffffffffffff8111156120fa57600080fd5b61210686828701611fe6565b935050602084013567ffffffffffffffff81111561212357600080fd5b61212f86828701611fe6565b925050604061214086828701612010565b9150509250925092565b6000806040838503121561215d57600080fd5b600083013567ffffffffffffffff81111561217757600080fd5b61218385828601611fe6565b925050602061219485828601612010565b9150509250929050565b6000602082840312156121b057600080fd5b60006121be84828501612010565b91505092915050565b60006121d383836122e4565b905092915050565b60006121e78383612686565b60208301905092915050565b6121fc81612bde565b82525050565b600061220d82612a3f565b6122178185612a7a565b93508360208202850161222985612a0a565b8060005b85811015612265578484038952815161224685826121c7565b945061225183612a60565b925060208a0199505060018101905061222d565b50829750879550505050505092915050565b600061228282612a4a565b61228c8185612a8b565b935061229783612a1a565b8060005b838110156122c85781516122af88826121db565b97506122ba83612a6d565b92505060018101905061229b565b5085935050505092915050565b6122de81612bf0565b82525050565b60006122ef82612a55565b6122f98185612a9c565b9350612309818560208601612c35565b61231281612d9f565b840191505092915050565b600061232882612a55565b6123328185612aad565b9350612342818560208601612c35565b61234b81612d9f565b840191505092915050565b600061236182612a55565b61236b8185612abe565b935061237b818560208601612c35565b80840191505092915050565b6000815461239481612c68565b61239e8186612abe565b945060018216600081146123b957600181146123ca576123fd565b60ff198316865281860193506123fd565b6123d385612a2a565b60005b838110156123f5578154818901526001820191506020810190506123d6565b838801955050505b50505092915050565b6000612413601f83612aad565b91507f596f75206d7573742062652061207265676973746572656420626964646572006000830152602082019050919050565b6000612453601883612aad565b91507f54656e64657220697320616c726561647920636c6f73656400000000000000006000830152602082019050919050565b6000612493601983612aad565b91507f42696464657220616c72656164792072656769737465726564000000000000006000830152602082019050919050565b60006124d3601583612aad565b91507f54656e64657220616c72656164792065786973747300000000000000000000006000830152602082019050919050565b6000612513601083612aad565b91507f54656e64657220697320636c6f736564000000000000000000000000000000006000830152602082019050919050565b6000612553601583612aad565b91507f54656e64657220646f6573206e6f7420657869737400000000000000000000006000830152602082019050919050565b6000612593600183612abe565b91507f5f000000000000000000000000000000000000000000000000000000000000006000830152600182019050919050565b60006125d3601483612aad565b91507f41646d696e20616c7265616479206578697374730000000000000000000000006000830152602082019050919050565b6000612613601583612aad565b91507f596f7520617265206e6f74207468652061646d696e00000000000000000000006000830152602082019050919050565b6000612653601f83612aad565b91507f42696420657863656564732031313025206f66206261736520616d6f756e74006000830152602082019050919050565b61268f81612c1c565b82525050565b61269e81612c1c565b82525050565b60006126b08284612356565b915081905092915050565b60006126c78285612356565b91506126d282612586565b91506126de8284612356565b91508190509392505050565b60006126f68284612387565b915081905092915050565b6000606082019050818103600083015261271b8186612202565b9050818103602083015261272f8185612202565b905081810360408301526127438184612277565b9050949350505050565b600060408201905081810360008301526127678185612202565b9050818103602083015261277b8184612277565b90509392505050565b600060208201905061279960008301846122d5565b92915050565b600060208201905081810360008301526127b9818461231d565b905092915050565b600060608201905081810360008301526127db818661231d565b90506127ea60208301856121f3565b6127f76040830184612695565b949350505050565b600060a0820190508181036000830152612819818861231d565b905061282860208301876122d5565b61283560408301866121f3565b6128426060830185612695565b61284f6080830184612695565b9695505050505050565b60006040820190508181036000830152612873818561231d565b90506128826020830184612695565b9392505050565b600060208201905081810360008301526128a281612406565b9050919050565b600060208201905081810360008301526128c281612446565b9050919050565b600060208201905081810360008301526128e281612486565b9050919050565b60006020820190508181036000830152612902816124c6565b9050919050565b6000602082019050818103600083015261292281612506565b9050919050565b6000602082019050818103600083015261294281612546565b9050919050565b60006020820190508181036000830152612962816125c6565b9050919050565b6000602082019050818103600083015261298281612606565b9050919050565b600060208201905081810360008301526129a281612646565b9050919050565b6000604051905081810181811067ffffffffffffffff821117156129d0576129cf612d70565b5b8060405250919050565b600067ffffffffffffffff8211156129f5576129f4612d70565b5b601f19601f8301169050602081019050919050565b6000819050602082019050919050565b6000819050602082019050919050565b60008190508160005260206000209050919050565b600081519050919050565b600081519050919050565b600081519050919050565b6000602082019050919050565b6000602082019050919050565b600082825260208201905092915050565b600082825260208201905092915050565b600082825260208201905092915050565b600082825260208201905092915050565b600081905092915050565b6000612ad482612c1c565b9150612adf83612c1c565b9250827fffffffffffffffffffffffffffffffffffffffffffffffffffffffffffffffff03821115612b1457612b13612ce3565b5b828201905092915050565b6000612b2a82612c1c565b9150612b3583612c1c565b925082612b4557612b44612d12565b5b828204905092915050565b6000612b5b82612c1c565b9150612b6683612c1c565b9250817fffffffffffffffffffffffffffffffffffffffffffffffffffffffffffffffff0483118215151615612b9f57612b9e612ce3565b5b828202905092915050565b6000612bb582612c1c565b9150612bc083612c1c565b925082821015612bd357612bd2612ce3565b5b828203905092915050565b6000612be982612bfc565b9050919050565b60008115159050919050565b600073ffffffffffffffffffffffffffffffffffffffff82169050919050565b6000819050919050565b82818337600083830152505050565b60005b83811015612c53578082015181840152602081019050612c38565b83811115612c62576000848401525b50505050565b60006002820490506001821680612c8057607f821691505b60208210811415612c9457612c93612d41565b5b50919050565b6000612ca582612c1c565b91507fffffffffffffffffffffffffffffffffffffffffffffffffffffffffffffffff821415612cd857612cd7612ce3565b5b600182019050919050565b7f4e487b7100000000000000000000000000000000000000000000000000000000600052601160045260246000fd5b7f4e487b7100000000000000000000000000000000000000000000000000000000600052601260045260246000fd5b7f4e487b7100000000000000000000000000000000000000000000000000000000600052602260045260246000fd5b7f4e487b7100000000000000000000000000000000000000000000000000000000600052604160045260246000fd5b6000601f19601f8301169050919050565b612db981612bde565b8114612dc457600080fd5b50565b612dd081612c1c565b8114612ddb57600080fd5b5056fea26469706673582212204986461d579bb35d6b68413540339835af1833fffb9cb7166f20716ded5a618064736f6c63430008000033",
  "immutableReferences": {},
  "source": "// SPDX-License-Identifier: MIT\r\npragma solidity ^0.8.0;\r\n\r\ncontract TenderBidding {\r\n\r\n    struct Bidder {\r\n        string name; // Bidder's name\r\n        uint256 amount; // Bidder's bid amount\r\n    }\r\n\r\n    struct Tender {\r\n        string uniqueKey; // Unique key in the format \"latitude_longitude\"\r\n        bool isClosed; // If the tender is closed or not\r\n        address winner; // The winner of the tender\r\n        uint256 lowestBid; // The lowest bid amount\r\n        uint256 baseAmount; // Base amount set during tender creation\r\n        Bidder[] bids; // List of all bids placed for this tender\r\n    }\r\n\r\n    mapping(string => Tender) public tenders;\r\n    string[] public tenderKeys;\r\n\r\n    mapping(address => string) public bidderNames;\r\n    mapping(address => bool) public admins;\r\n\r\n    mapping(address => string[]) public bidderTenders; // Track tenders a bidder has participated in\r\n\r\n    modifier onlyAdmin() {\r\n        require(admins[msg.sender], \"You are not the admin\");\r\n        _;\r\n    }\r\n\r\n    modifier tenderExists(string memory _key) {\r\n        require(bytes(tenders[_key].uniqueKey).length != 0, \"Tender does not exist\");\r\n        _;\r\n    }\r\n\r\n    function createAdmin(string memory _name) public {\r\n        require(bytes(bidderNames[msg.sender]).length == 0, \"Admin already exists\");\r\n        admins[msg.sender] = true;\r\n        bidderNames[msg.sender] = _name;\r\n    }\r\n\r\n    function registerBidder(string memory _name) public {\r\n        require(bytes(bidderNames[msg.sender]).length == 0, \"Bidder already registered\");\r\n        bidderNames[msg.sender] = _name;\r\n    }\r\n\r\n    function createTender(string memory _latitude, string memory _longitude, uint256 _baseAmount) public onlyAdmin {\r\n        string memory tenderKey = string(abi.encodePacked(_latitude, \"_\", _longitude));\r\n        require(bytes(tenders[tenderKey].uniqueKey).length == 0, \"Tender already exists\");\r\n\r\n        Tender storage newTender = tenders[tenderKey];\r\n        newTender.uniqueKey = tenderKey;\r\n        newTender.isClosed = false;\r\n        newTender.lowestBid = type(uint256).max;\r\n        newTender.baseAmount = _baseAmount;\r\n\r\n        tenderKeys.push(tenderKey);\r\n        emit TenderCreated(tenderKey, _baseAmount);\r\n    }\r\n\r\n    function placeBid(string memory _tenderKey, uint256 _amount) public tenderExists(_tenderKey) {\r\n        Tender storage tender = tenders[_tenderKey];\r\n        require(!tender.isClosed, \"Tender is closed\");\r\n        require(bytes(bidderNames[msg.sender]).length > 0, \"You must be a registered bidder\");\r\n        require(_amount <= (tender.baseAmount * 110) / 100, \"Bid exceeds 110% of base amount\");\r\n\r\n        tender.bids.push(Bidder({name: bidderNames[msg.sender], amount: _amount}));\r\n\r\n        sortBids(tender);\r\n\r\n        if (_amount < tender.lowestBid) {\r\n            tender.lowestBid = _amount;\r\n            tender.winner = msg.sender;\r\n        }\r\n\r\n        // Track the tender for the bidder\r\n        bool alreadyAdded = false;\r\n        for (uint256 i = 0; i < bidderTenders[msg.sender].length; i++) {\r\n            if (keccak256(abi.encodePacked(bidderTenders[msg.sender][i])) == keccak256(abi.encodePacked(_tenderKey))) {\r\n                alreadyAdded = true;\r\n                break;\r\n            }\r\n        }\r\n        if (!alreadyAdded) {\r\n            bidderTenders[msg.sender].push(_tenderKey);\r\n        }\r\n    }\r\n\r\n    function sortBids(Tender storage _tender) internal {\r\n        uint256 length = _tender.bids.length;\r\n        for (uint256 i = 0; i < length - 1; i++) {\r\n            for (uint256 j = i + 1; j < length; j++) {\r\n                if (_tender.bids[i].amount > _tender.bids[j].amount) {\r\n                    Bidder memory tempBid = _tender.bids[i];\r\n                    _tender.bids[i] = _tender.bids[j];\r\n                    _tender.bids[j] = tempBid;\r\n                }\r\n            }\r\n        }\r\n    }\r\n\r\n    function closeTender(string memory _tenderKey) public onlyAdmin tenderExists(_tenderKey) {\r\n        Tender storage tender = tenders[_tenderKey];\r\n        require(!tender.isClosed, \"Tender is already closed\");\r\n\r\n        tender.isClosed = true;\r\n        emit TenderClosed(_tenderKey, tender.winner, tender.lowestBid);\r\n    }\r\n\r\n    function listOpenTenders() public view returns (string[] memory, uint256[] memory) {\r\n        uint256 openCount = 0;\r\n        for (uint256 i = 0; i < tenderKeys.length; i++) {\r\n            if (!tenders[tenderKeys[i]].isClosed) {\r\n                openCount++;\r\n            }\r\n        }\r\n\r\n        string[] memory keys = new string[](openCount);\r\n        uint256[] memory baseAmounts = new uint256[](openCount);\r\n\r\n        uint256 index = 0;\r\n        for (uint256 i = 0; i < tenderKeys.length; i++) {\r\n            if (!tenders[tenderKeys[i]].isClosed) {\r\n                keys[index] = tenderKeys[i];\r\n                baseAmounts[index] = tenders[tenderKeys[i]].baseAmount;\r\n                index++;\r\n            }\r\n        }\r\n\r\n        return (keys, baseAmounts);\r\n    }\r\n\r\n    function listClosedTenders() public view returns (string[] memory, string[] memory, uint256[] memory) {\r\n        uint256 closedCount = 0;\r\n        for (uint256 i = 0; i < tenderKeys.length; i++) {\r\n            if (tenders[tenderKeys[i]].isClosed) {\r\n                closedCount++;\r\n            }\r\n        }\r\n\r\n        string[] memory keys = new string[](closedCount);\r\n        string[] memory winnerNames = new string[](closedCount);\r\n        uint256[] memory amounts = new uint256[](closedCount);\r\n\r\n        uint256 index = 0;\r\n        for (uint256 i = 0; i < tenderKeys.length; i++) {\r\n            if (tenders[tenderKeys[i]].isClosed) {\r\n                keys[index] = tenderKeys[i];\r\n                winnerNames[index] = bidderNames[tenders[tenderKeys[i]].winner];\r\n                amounts[index] = tenders[tenderKeys[i]].lowestBid;\r\n                index++;\r\n            }\r\n        }\r\n\r\n        return (keys, winnerNames, amounts);\r\n    }\r\n\r\n    event TenderCreated(string tenderKey, uint256 baseAmount);\r\n    event TenderClosed(string tenderKey, address winner, uint256 lowestBid);\r\n}",
  "sourcePath": "D:\\Hackathons\\pothole-detection-project\\frontend\\contracts\\TenderBidding.sol",
  "compiler": {
    "name": "solc",
    "version": "0.8.0+commit.c7dfd78e.Emscripten.clang"
  },
  "schemaVersion": "3.4.16",
  "updatedAt": "2024-11-16T01:39:33.061Z",
  "networkType": "ethereum",
  "devdoc": {
    "kind": "dev",
    "methods": {},
    "version": 1
  },
  "userdoc": {
    "kind": "user",
    "methods": {},
    "version": 1
  }
}