{
  "contractName": "TenderBidding",
  "abi": [
    {
      "anonymous": false,
      "inputs": [
        {
          "indexed": false,
          "internalType": "string",
          "name": "tenderKey",
          "type": "string"
        },
        {
          "indexed": false,
          "internalType": "address",
          "name": "winner",
          "type": "address"
        },
        {
          "indexed": false,
          "internalType": "uint256",
          "name": "lowestBid",
          "type": "uint256"
        }
      ],
      "name": "TenderClosed",
      "type": "event"
    },
    {
      "anonymous": false,
      "inputs": [
        {
          "indexed": false,
          "internalType": "string",
          "name": "tenderKey",
          "type": "string"
        },
        {
          "indexed": false,
          "internalType": "uint256",
          "name": "baseAmount",
          "type": "uint256"
        }
      ],
      "name": "TenderCreated",
      "type": "event"
    },
    {
      "inputs": [
        {
          "internalType": "address",
          "name": "",
          "type": "address"
        }
      ],
      "name": "admins",
      "outputs": [
        {
          "internalType": "bool",
          "name": "",
          "type": "bool"
        }
      ],
      "stateMutability": "view",
      "type": "function"
    },
    {
      "inputs": [
        {
          "internalType": "address",
          "name": "",
          "type": "address"
        }
      ],
      "name": "bidderNames",
      "outputs": [
        {
          "internalType": "string",
          "name": "",
          "type": "string"
        }
      ],
      "stateMutability": "view",
      "type": "function"
    },
    {
      "inputs": [
        {
          "internalType": "address",
          "name": "",
          "type": "address"
        },
        {
          "internalType": "uint256",
          "name": "",
          "type": "uint256"
        }
      ],
      "name": "bidderTenders",
      "outputs": [
        {
          "internalType": "string",
          "name": "",
          "type": "string"
        }
      ],
      "stateMutability": "view",
      "type": "function"
    },
    {
      "inputs": [
        {
          "internalType": "uint256",
          "name": "",
          "type": "uint256"
        }
      ],
      "name": "registeredBidders",
      "outputs": [
        {
          "internalType": "address",
          "name": "",
          "type": "address"
        }
      ],
      "stateMutability": "view",
      "type": "function"
    },
    {
      "inputs": [
        {
          "internalType": "uint256",
          "name": "",
          "type": "uint256"
        }
      ],
      "name": "tenderKeys",
      "outputs": [
        {
          "internalType": "string",
          "name": "",
          "type": "string"
        }
      ],
      "stateMutability": "view",
      "type": "function"
    },
    {
      "inputs": [
        {
          "internalType": "string",
          "name": "",
          "type": "string"
        }
      ],
      "name": "tenders",
      "outputs": [
        {
          "internalType": "string",
          "name": "uniqueKey",
          "type": "string"
        },
        {
          "internalType": "bool",
          "name": "isClosed",
          "type": "bool"
        },
        {
          "internalType": "address",
          "name": "winner",
          "type": "address"
        },
        {
          "internalType": "uint256",
          "name": "lowestBid",
          "type": "uint256"
        },
        {
          "internalType": "uint256",
          "name": "baseAmount",
          "type": "uint256"
        }
      ],
      "stateMutability": "view",
      "type": "function"
    },
    {
      "inputs": [
        {
          "internalType": "string",
          "name": "_name",
          "type": "string"
        }
      ],
      "name": "createAdmin",
      "outputs": [],
      "stateMutability": "nonpayable",
      "type": "function"
    },
    {
      "inputs": [
        {
          "internalType": "string",
          "name": "_name",
          "type": "string"
        }
      ],
      "name": "registerBidder",
      "outputs": [],
      "stateMutability": "nonpayable",
      "type": "function"
    },
    {
      "inputs": [
        {
          "internalType": "string",
          "name": "_latitude",
          "type": "string"
        },
        {
          "internalType": "string",
          "name": "_longitude",
          "type": "string"
        },
        {
          "internalType": "uint256",
          "name": "_baseAmount",
          "type": "uint256"
        }
      ],
      "name": "createTender",
      "outputs": [],
      "stateMutability": "nonpayable",
      "type": "function"
    },
    {
      "inputs": [
        {
          "internalType": "string",
          "name": "_tenderKey",
          "type": "string"
        },
        {
          "internalType": "uint256",
          "name": "_amount",
          "type": "uint256"
        }
      ],
      "name": "placeBid",
      "outputs": [],
      "stateMutability": "nonpayable",
      "type": "function"
    },
    {
      "inputs": [
        {
          "internalType": "string",
          "name": "_tenderKey",
          "type": "string"
        }
      ],
      "name": "closeTender",
      "outputs": [],
      "stateMutability": "nonpayable",
      "type": "function"
    },
    {
      "inputs": [],
      "name": "listOpenTenders",
      "outputs": [
        {
          "internalType": "string[]",
          "name": "",
          "type": "string[]"
        },
        {
          "internalType": "uint256[]",
          "name": "",
          "type": "uint256[]"
        }
      ],
      "stateMutability": "view",
      "type": "function"
    },
    {
      "inputs": [],
      "name": "listClosedTenders",
      "outputs": [
        {
          "internalType": "string[]",
          "name": "",
          "type": "string[]"
        },
        {
          "internalType": "string[]",
          "name": "",
          "type": "string[]"
        },
        {
          "internalType": "uint256[]",
          "name": "",
          "type": "uint256[]"
        }
      ],
      "stateMutability": "view",
      "type": "function"
    },
    {
      "inputs": [],
      "name": "listBidders",
      "outputs": [
        {
          "internalType": "address[]",
          "name": "",
          "type": "address[]"
        },
        {
          "internalType": "string[]",
          "name": "",
          "type": "string[]"
        }
      ],
      "stateMutability": "view",
      "type": "function"
    }
  ],
  "bytecode": "0x608060405234801561001057600080fd5b506133b7806100206000396000f3fe608060405234801561001057600080fd5b50600436106100ea5760003560e01c8063792f58ff1161008c578063997b737f11610066578063997b737f1461025d578063a7eaa24114610291578063c33ab4ad146102ad578063e13e12e8146102cd576100ea565b8063792f58ff146101f55780637bfc60e414610211578063907dbc1d14610241576100ea565b806331c0e45a116100c857806331c0e45a1461015a578063380e85761461018a578063429b62e5146101a65780634866bd24146101d6576100ea565b806312209d0d146100ef57806316b5e2061461010e5780632678c68d1461013e575b600080fd5b6100f76102fd565b604051610105929190612cb7565b60405180910390f35b61012860048036038101906101239190612631565b610708565b6040516101359190612d09565b60405180910390f35b6101586004803603810190610153919061251d565b6107b4565b005b610174600480360381019061016f91906124b8565b6108f1565b6040516101819190612d09565b60405180910390f35b6101a4600480360381019061019f919061251d565b610991565b005b6101c060048036038101906101bb91906124b8565b610ad9565b6040516101cd9190612cee565b60405180910390f35b6101de610af9565b6040516101ec929190612c34565b60405180910390f35b61020f600480360381019061020a919061251d565b610e65565b005b61022b600480360381019061022691906124e1565b61105a565b6040516102389190612d09565b60405180910390f35b61025b6004803603810190610256919061255e565b611113565b005b6102776004803603810190610272919061251d565b611339565b604051610288959493929190612d69565b60405180910390f35b6102ab60048036038101906102a691906125dd565b61143a565b005b6102b5611964565b6040516102c493929190612c6b565b60405180910390f35b6102e760048036038101906102e29190612631565b611f7f565b6040516102f49190612c19565b60405180910390f35b6060806000805b6001805490508110156103a95760006001828154811061034d577f4e487b7100000000000000000000000000000000000000000000000000000000600052603260045260246000fd5b906000526020600020016040516103649190612c02565b908152602001604051809103902060010160009054906101000a900460ff166103965781806103929061323d565b9250505b80806103a19061323d565b915050610304565b5060008167ffffffffffffffff8111156103ec577f4e487b7100000000000000000000000000000000000000000000000000000000600052604160045260246000fd5b60405190808252806020026020018201604052801561041f57816020015b606081526020019060019003908161040a5790505b50905060008267ffffffffffffffff811115610464577f4e487b7100000000000000000000000000000000000000000000000000000000600052604160045260246000fd5b6040519080825280602002602001820160405280156104925781602001602082028036833780820191505090505b5090506000805b6001805490508110156106f9576000600182815481106104e2577f4e487b7100000000000000000000000000000000000000000000000000000000600052603260045260246000fd5b906000526020600020016040516104f99190612c02565b908152602001604051809103902060010160009054906101000a900460ff166106e65760018181548110610556577f4e487b7100000000000000000000000000000000000000000000000000000000600052603260045260246000fd5b90600052602060002001805461056b9061320b565b80601f01602080910402602001604051908101604052809291908181526020018280546105979061320b565b80156105e45780601f106105b9576101008083540402835291602001916105e4565b820191906000526020600020905b8154815290600101906020018083116105c757829003601f168201915b5050505050848381518110610622577f4e487b7100000000000000000000000000000000000000000000000000000000600052603260045260246000fd5b6020026020010181905250600060018281548110610669577f4e487b7100000000000000000000000000000000000000000000000000000000600052603260045260246000fd5b906000526020600020016040516106809190612c02565b9081526020016040518091039020600301548383815181106106cb577f4e487b7100000000000000000000000000000000000000000000000000000000600052603260045260246000fd5b60200260200101818152505081806106e29061323d565b9250505b80806106f19061323d565b915050610499565b50828295509550505050509091565b6001818154811061071857600080fd5b9060005260206000200160009150905080546107339061320b565b80601f016020809104026020016040519081016040528092919081815260200182805461075f9061320b565b80156107ac5780601f10610781576101008083540402835291602001916107ac565b820191906000526020600020905b81548152906001019060200180831161078f57829003601f168201915b505050505081565b6000600260003373ffffffffffffffffffffffffffffffffffffffff1673ffffffffffffffffffffffffffffffffffffffff16815260200190815260200160002080546108009061320b565b905014610842576040517f08c379a000000000000000000000000000000000000000000000000000000000815260040161083990612eb3565b60405180910390fd5b6001600360003373ffffffffffffffffffffffffffffffffffffffff1673ffffffffffffffffffffffffffffffffffffffff16815260200190815260200160002060006101000a81548160ff02191690831515021790555080600260003373ffffffffffffffffffffffffffffffffffffffff1673ffffffffffffffffffffffffffffffffffffffff16815260200190815260200160002090805190602001906108ed9291906122f6565b5050565b600260205280600052604060002060009150905080546109109061320b565b80601f016020809104026020016040519081016040528092919081815260200182805461093c9061320b565b80156109895780601f1061095e57610100808354040283529160200191610989565b820191906000526020600020905b81548152906001019060200180831161096c57829003601f168201915b505050505081565b6000600260003373ffffffffffffffffffffffffffffffffffffffff1673ffffffffffffffffffffffffffffffffffffffff16815260200190815260200160002080546109dd9061320b565b905014610a1f576040517f08c379a0000000000000000000000000000000000000000000000000000000008152600401610a1690612e33565b60405180910390fd5b80600260003373ffffffffffffffffffffffffffffffffffffffff1673ffffffffffffffffffffffffffffffffffffffff1681526020019081526020016000209080519060200190610a729291906122f6565b506004339080600181540180825580915050600190039060005260206000200160009091909190916101000a81548173ffffffffffffffffffffffffffffffffffffffff021916908373ffffffffffffffffffffffffffffffffffffffff16021790555050565b60036020528060005260406000206000915054906101000a900460ff1681565b6060806000600480549050905060008167ffffffffffffffff811115610b48577f4e487b7100000000000000000000000000000000000000000000000000000000600052604160045260246000fd5b604051908082528060200260200182016040528015610b765781602001602082028036833780820191505090505b50905060008267ffffffffffffffff811115610bbb577f4e487b7100000000000000000000000000000000000000000000000000000000600052604160045260246000fd5b604051908082528060200260200182016040528015610bee57816020015b6060815260200190600190039081610bd95790505b50905060005b83811015610e575760048181548110610c36577f4e487b7100000000000000000000000000000000000000000000000000000000600052603260045260246000fd5b9060005260206000200160009054906101000a900473ffffffffffffffffffffffffffffffffffffffff16838281518110610c9a577f4e487b7100000000000000000000000000000000000000000000000000000000600052603260045260246000fd5b602002602001019073ffffffffffffffffffffffffffffffffffffffff16908173ffffffffffffffffffffffffffffffffffffffff16815250506002600060048381548110610d12577f4e487b7100000000000000000000000000000000000000000000000000000000600052603260045260246000fd5b9060005260206000200160009054906101000a900473ffffffffffffffffffffffffffffffffffffffff1673ffffffffffffffffffffffffffffffffffffffff1673ffffffffffffffffffffffffffffffffffffffff1681526020019081526020016000208054610d829061320b565b80601f0160208091040260200160405190810160405280929190818152602001828054610dae9061320b565b8015610dfb5780601f10610dd057610100808354040283529160200191610dfb565b820191906000526020600020905b815481529060010190602001808311610dde57829003601f168201915b5050505050828281518110610e39577f4e487b7100000000000000000000000000000000000000000000000000000000600052603260045260246000fd5b60200260200101819052508080610e4f9061323d565b915050610bf4565b508181945094505050509091565b600360003373ffffffffffffffffffffffffffffffffffffffff1673ffffffffffffffffffffffffffffffffffffffff16815260200190815260200160002060009054906101000a900460ff16610ef1576040517f08c379a0000000000000000000000000000000000000000000000000000000008152600401610ee890612ed3565b60405180910390fd5b8060008082604051610f039190612bbc565b90815260200160405180910390206000018054610f1f9061320b565b90501415610f62576040517f08c379a0000000000000000000000000000000000000000000000000000000008152600401610f5990612e93565b60405180910390fd5b60008083604051610f739190612bbc565b908152602001604051809103902090508060010160009054906101000a900460ff1615610fd5576040517f08c379a0000000000000000000000000000000000000000000000000000000008152600401610fcc90612e13565b60405180910390fd5b60018160010160006101000a81548160ff0219169083151502179055507f1ce78ab40e4dd283068f088255c9dcf4894c9e35b472db89410e2f0bc4cbf58e838260010160019054906101000a900473ffffffffffffffffffffffffffffffffffffffff16836002015460405161104d93929190612d2b565b60405180910390a1505050565b6005602052816000526040600020818154811061107657600080fd5b906000526020600020016000915091505080546110929061320b565b80601f01602080910402602001604051908101604052809291908181526020018280546110be9061320b565b801561110b5780601f106110e05761010080835404028352916020019161110b565b820191906000526020600020905b8154815290600101906020018083116110ee57829003601f168201915b505050505081565b600360003373ffffffffffffffffffffffffffffffffffffffff1673ffffffffffffffffffffffffffffffffffffffff16815260200190815260200160002060009054906101000a900460ff1661119f576040517f08c379a000000000000000000000000000000000000000000000000000000000815260040161119690612ed3565b60405180910390fd5b600083836040516020016111b4929190612bd3565b6040516020818303038152906040529050600080826040516111d69190612bbc565b908152602001604051809103902060000180546111f29061320b565b905014611234576040517f08c379a000000000000000000000000000000000000000000000000000000000815260040161122b90612e53565b60405180910390fd5b600080826040516112459190612bbc565b908152602001604051809103902090508181600001908051906020019061126d9291906122f6565b5060008160010160006101000a81548160ff0219169083151502179055507fffffffffffffffffffffffffffffffffffffffffffffffffffffffffffffffff81600201819055508281600301819055506001829080600181540180825580915050600190039060005260206000200160009091909190915090805190602001906112f89291906122f6565b507fe21989ee2249f0934978d12e665f98fd40fc4bbeba0432250075da885e9cb8ea828460405161132a929190612dc3565b60405180910390a15050505050565b6000818051602081018201805184825260208301602085012081835280955050505050506000915090508060000180546113729061320b565b80601f016020809104026020016040519081016040528092919081815260200182805461139e9061320b565b80156113eb5780601f106113c0576101008083540402835291602001916113eb565b820191906000526020600020905b8154815290600101906020018083116113ce57829003601f168201915b5050505050908060010160009054906101000a900460ff16908060010160019054906101000a900473ffffffffffffffffffffffffffffffffffffffff16908060020154908060030154905085565b816000808260405161144c9190612bbc565b908152602001604051809103902060000180546114689061320b565b905014156114ab576040517f08c379a00000000000000000000000000000000000000000000000000000000081526004016114a290612e93565b60405180910390fd5b600080846040516114bc9190612bbc565b908152602001604051809103902090508060010160009054906101000a900460ff161561151e576040517f08c379a000000000000000000000000000000000000000000000000000000000815260040161151590612e73565b60405180910390fd5b6000600260003373ffffffffffffffffffffffffffffffffffffffff1673ffffffffffffffffffffffffffffffffffffffff168152602001908152602001600020805461156a9061320b565b9050116115ac576040517f08c379a00000000000000000000000000000000000000000000000000000000081526004016115a390612df3565b60405180910390fd5b6064606e82600301546115bf91906130f3565b6115c991906130c2565b83111561160b576040517f08c379a000000000000000000000000000000000000000000000000000000000815260040161160290612ef3565b60405180910390fd5b806004016040518060400160405280600260003373ffffffffffffffffffffffffffffffffffffffff1673ffffffffffffffffffffffffffffffffffffffff16815260200190815260200160002080546116649061320b565b80601f01602080910402602001604051908101604052809291908181526020018280546116909061320b565b80156116dd5780601f106116b2576101008083540402835291602001916116dd565b820191906000526020600020905b8154815290600101906020018083116116c057829003601f168201915b5050505050815260200185815250908060018154018082558091505060019003906000526020600020906002020160009091909190915060008201518160000190805190602001906117309291906122f6565b5060208201518160010155505061174681611fbe565b806002015483101561179f57828160020181905550338160010160016101000a81548173ffffffffffffffffffffffffffffffffffffffff021916908373ffffffffffffffffffffffffffffffffffffffff1602179055505b6000805b600560003373ffffffffffffffffffffffffffffffffffffffff1673ffffffffffffffffffffffffffffffffffffffff168152602001908152602001600020805490508110156118dd57856040516020016117fe9190612bbc565b60405160208183030381529060405280519060200120600560003373ffffffffffffffffffffffffffffffffffffffff1673ffffffffffffffffffffffffffffffffffffffff168152602001908152602001600020828154811061188b577f4e487b7100000000000000000000000000000000000000000000000000000000600052603260045260246000fd5b906000526020600020016040516020016118a59190612c02565b6040516020818303038152906040528051906020012014156118ca57600191506118dd565b80806118d59061323d565b9150506117a3565b508061195d57600560003373ffffffffffffffffffffffffffffffffffffffff1673ffffffffffffffffffffffffffffffffffffffff1681526020019081526020016000208590806001815401808255809150506001900390600052602060002001600090919091909150908051906020019061195b9291906122f6565b505b5050505050565b60608060606000805b600180549050811015611a13576000600182815481106119b6577f4e487b7100000000000000000000000000000000000000000000000000000000600052603260045260246000fd5b906000526020600020016040516119cd9190612c02565b908152602001604051809103902060010160009054906101000a900460ff1615611a005781806119fc9061323d565b9250505b8080611a0b9061323d565b91505061196d565b5060008167ffffffffffffffff811115611a56577f4e487b7100000000000000000000000000000000000000000000000000000000600052604160045260246000fd5b604051908082528060200260200182016040528015611a8957816020015b6060815260200190600190039081611a745790505b50905060008267ffffffffffffffff811115611ace577f4e487b7100000000000000000000000000000000000000000000000000000000600052604160045260246000fd5b604051908082528060200260200182016040528015611b0157816020015b6060815260200190600190039081611aec5790505b50905060008367ffffffffffffffff811115611b46577f4e487b7100000000000000000000000000000000000000000000000000000000600052604160045260246000fd5b604051908082528060200260200182016040528015611b745781602001602082028036833780820191505090505b5090506000805b600180549050811015611f6b57600060018281548110611bc4577f4e487b7100000000000000000000000000000000000000000000000000000000600052603260045260246000fd5b90600052602060002001604051611bdb9190612c02565b908152602001604051809103902060010160009054906101000a900460ff1615611f585760018181548110611c39577f4e487b7100000000000000000000000000000000000000000000000000000000600052603260045260246000fd5b906000526020600020018054611c4e9061320b565b80601f0160208091040260200160405190810160405280929190818152602001828054611c7a9061320b565b8015611cc75780601f10611c9c57610100808354040283529160200191611cc7565b820191906000526020600020905b815481529060010190602001808311611caa57829003601f168201915b5050505050858381518110611d05577f4e487b7100000000000000000000000000000000000000000000000000000000600052603260045260246000fd5b6020026020010181905250600260008060018481548110611d4f577f4e487b7100000000000000000000000000000000000000000000000000000000600052603260045260246000fd5b90600052602060002001604051611d669190612c02565b908152602001604051809103902060010160019054906101000a900473ffffffffffffffffffffffffffffffffffffffff1673ffffffffffffffffffffffffffffffffffffffff1673ffffffffffffffffffffffffffffffffffffffff1681526020019081526020016000208054611ddd9061320b565b80601f0160208091040260200160405190810160405280929190818152602001828054611e099061320b565b8015611e565780601f10611e2b57610100808354040283529160200191611e56565b820191906000526020600020905b815481529060010190602001808311611e3957829003601f168201915b5050505050848381518110611e94577f4e487b7100000000000000000000000000000000000000000000000000000000600052603260045260246000fd5b6020026020010181905250600060018281548110611edb577f4e487b7100000000000000000000000000000000000000000000000000000000600052603260045260246000fd5b90600052602060002001604051611ef29190612c02565b908152602001604051809103902060020154838381518110611f3d577f4e487b7100000000000000000000000000000000000000000000000000000000600052603260045260246000fd5b6020026020010181815250508180611f549061323d565b9250505b8080611f639061323d565b915050611b7b565b508383839750975097505050505050909192565b60048181548110611f8f57600080fd5b906000526020600020016000915054906101000a900473ffffffffffffffffffffffffffffffffffffffff1681565b60008160040180549050905060005b600182611fda919061314d565b8110156122f1576000600182611ff0919061306c565b90505b828110156122dd57836004018181548110612037577f4e487b7100000000000000000000000000000000000000000000000000000000600052603260045260246000fd5b906000526020600020906002020160010154846004018381548110612085577f4e487b7100000000000000000000000000000000000000000000000000000000600052603260045260246000fd5b90600052602060002090600202016001015411156122ca5760008460040183815481106120db577f4e487b7100000000000000000000000000000000000000000000000000000000600052603260045260246000fd5b90600052602060002090600202016040518060400160405290816000820180546121049061320b565b80601f01602080910402602001604051908101604052809291908181526020018280546121309061320b565b801561217d5780601f106121525761010080835404028352916020019161217d565b820191906000526020600020905b81548152906001019060200180831161216057829003601f168201915b5050505050815260200160018201548152505090508460040182815481106121ce577f4e487b7100000000000000000000000000000000000000000000000000000000600052603260045260246000fd5b9060005260206000209060020201856004018481548110612218577f4e487b7100000000000000000000000000000000000000000000000000000000600052603260045260246000fd5b9060005260206000209060020201600082018160000190805461223a9061320b565b61224592919061237c565b506001820154816001015590505080856004018381548110612290577f4e487b7100000000000000000000000000000000000000000000000000000000600052603260045260246000fd5b906000526020600020906002020160008201518160000190805190602001906122ba9291906122f6565b5060208201518160010155905050505b80806122d59061323d565b915050611ff3565b5080806122e99061323d565b915050611fcd565b505050565b8280546123029061320b565b90600052602060002090601f016020900481019282612324576000855561236b565b82601f1061233d57805160ff191683800117855561236b565b8280016001018555821561236b579182015b8281111561236a57825182559160200191906001019061234f565b5b5090506123789190612409565b5090565b8280546123889061320b565b90600052602060002090601f0160209004810192826123aa57600085556123f8565b82601f106123bb57805485556123f8565b828001600101855582156123f857600052602060002091601f016020900482015b828111156123f75782548255916001019190600101906123dc565b5b5090506124059190612409565b5090565b5b8082111561242257600081600090555060010161240a565b5090565b600061243961243484612f44565b612f13565b90508281526020810184848401111561245157600080fd5b61245c8482856131c9565b509392505050565b60008135905061247381613353565b92915050565b600082601f83011261248a57600080fd5b813561249a848260208601612426565b91505092915050565b6000813590506124b28161336a565b92915050565b6000602082840312156124ca57600080fd5b60006124d884828501612464565b91505092915050565b600080604083850312156124f457600080fd5b600061250285828601612464565b9250506020612513858286016124a3565b9150509250929050565b60006020828403121561252f57600080fd5b600082013567ffffffffffffffff81111561254957600080fd5b61255584828501612479565b91505092915050565b60008060006060848603121561257357600080fd5b600084013567ffffffffffffffff81111561258d57600080fd5b61259986828701612479565b935050602084013567ffffffffffffffff8111156125b657600080fd5b6125c286828701612479565b92505060406125d3868287016124a3565b9150509250925092565b600080604083850312156125f057600080fd5b600083013567ffffffffffffffff81111561260a57600080fd5b61261685828601612479565b9250506020612627858286016124a3565b9150509250929050565b60006020828403121561264357600080fd5b6000612651848285016124a3565b91505092915050565b6000612666838361269e565b60208301905092915050565b600061267e83836127fc565b905092915050565b60006126928383612b9e565b60208301905092915050565b6126a781613181565b82525050565b6126b681613181565b82525050565b60006126c782612fb9565b6126d1818561300c565b93506126dc83612f74565b8060005b8381101561270d5781516126f4888261265a565b97506126ff83612fe5565b9250506001810190506126e0565b5085935050505092915050565b600061272582612fc4565b61272f818561301d565b93508360208202850161274185612f84565b8060005b8581101561277d578484038952815161275e8582612672565b945061276983612ff2565b925060208a01995050600181019050612745565b50829750879550505050505092915050565b600061279a82612fcf565b6127a4818561302e565b93506127af83612f94565b8060005b838110156127e05781516127c78882612686565b97506127d283612fff565b9250506001810190506127b3565b5085935050505092915050565b6127f681613193565b82525050565b600061280782612fda565b612811818561303f565b93506128218185602086016131d8565b61282a81613342565b840191505092915050565b600061284082612fda565b61284a8185613050565b935061285a8185602086016131d8565b61286381613342565b840191505092915050565b600061287982612fda565b6128838185613061565b93506128938185602086016131d8565b80840191505092915050565b600081546128ac8161320b565b6128b68186613061565b945060018216600081146128d157600181146128e257612915565b60ff19831686528186019350612915565b6128eb85612fa4565b60005b8381101561290d578154818901526001820191506020810190506128ee565b838801955050505b50505092915050565b600061292b601f83613050565b91507f596f75206d7573742062652061207265676973746572656420626964646572006000830152602082019050919050565b600061296b601883613050565b91507f54656e64657220697320616c726561647920636c6f73656400000000000000006000830152602082019050919050565b60006129ab601983613050565b91507f42696464657220616c72656164792072656769737465726564000000000000006000830152602082019050919050565b60006129eb601583613050565b91507f54656e64657220616c72656164792065786973747300000000000000000000006000830152602082019050919050565b6000612a2b601083613050565b91507f54656e64657220697320636c6f736564000000000000000000000000000000006000830152602082019050919050565b6000612a6b601583613050565b91507f54656e64657220646f6573206e6f7420657869737400000000000000000000006000830152602082019050919050565b6000612aab600183613061565b91507f5f000000000000000000000000000000000000000000000000000000000000006000830152600182019050919050565b6000612aeb601483613050565b91507f41646d696e20616c7265616479206578697374730000000000000000000000006000830152602082019050919050565b6000612b2b601583613050565b91507f596f7520617265206e6f74207468652061646d696e00000000000000000000006000830152602082019050919050565b6000612b6b601f83613050565b91507f42696420657863656564732031313025206f66206261736520616d6f756e74006000830152602082019050919050565b612ba7816131bf565b82525050565b612bb6816131bf565b82525050565b6000612bc8828461286e565b915081905092915050565b6000612bdf828561286e565b9150612bea82612a9e565b9150612bf6828461286e565b91508190509392505050565b6000612c0e828461289f565b915081905092915050565b6000602082019050612c2e60008301846126ad565b92915050565b60006040820190508181036000830152612c4e81856126bc565b90508181036020830152612c62818461271a565b90509392505050565b60006060820190508181036000830152612c85818661271a565b90508181036020830152612c99818561271a565b90508181036040830152612cad818461278f565b9050949350505050565b60006040820190508181036000830152612cd1818561271a565b90508181036020830152612ce5818461278f565b90509392505050565b6000602082019050612d0360008301846127ed565b92915050565b60006020820190508181036000830152612d238184612835565b905092915050565b60006060820190508181036000830152612d458186612835565b9050612d5460208301856126ad565b612d616040830184612bad565b949350505050565b600060a0820190508181036000830152612d838188612835565b9050612d9260208301876127ed565b612d9f60408301866126ad565b612dac6060830185612bad565b612db96080830184612bad565b9695505050505050565b60006040820190508181036000830152612ddd8185612835565b9050612dec6020830184612bad565b9392505050565b60006020820190508181036000830152612e0c8161291e565b9050919050565b60006020820190508181036000830152612e2c8161295e565b9050919050565b60006020820190508181036000830152612e4c8161299e565b9050919050565b60006020820190508181036000830152612e6c816129de565b9050919050565b60006020820190508181036000830152612e8c81612a1e565b9050919050565b60006020820190508181036000830152612eac81612a5e565b9050919050565b60006020820190508181036000830152612ecc81612ade565b9050919050565b60006020820190508181036000830152612eec81612b1e565b9050919050565b60006020820190508181036000830152612f0c81612b5e565b9050919050565b6000604051905081810181811067ffffffffffffffff82111715612f3a57612f39613313565b5b8060405250919050565b600067ffffffffffffffff821115612f5f57612f5e613313565b5b601f19601f8301169050602081019050919050565b6000819050602082019050919050565b6000819050602082019050919050565b6000819050602082019050919050565b60008190508160005260206000209050919050565b600081519050919050565b600081519050919050565b600081519050919050565b600081519050919050565b6000602082019050919050565b6000602082019050919050565b6000602082019050919050565b600082825260208201905092915050565b600082825260208201905092915050565b600082825260208201905092915050565b600082825260208201905092915050565b600082825260208201905092915050565b600081905092915050565b6000613077826131bf565b9150613082836131bf565b9250827fffffffffffffffffffffffffffffffffffffffffffffffffffffffffffffffff038211156130b7576130b6613286565b5b828201905092915050565b60006130cd826131bf565b91506130d8836131bf565b9250826130e8576130e76132b5565b5b828204905092915050565b60006130fe826131bf565b9150613109836131bf565b9250817fffffffffffffffffffffffffffffffffffffffffffffffffffffffffffffffff048311821515161561314257613141613286565b5b828202905092915050565b6000613158826131bf565b9150613163836131bf565b92508282101561317657613175613286565b5b828203905092915050565b600061318c8261319f565b9050919050565b60008115159050919050565b600073ffffffffffffffffffffffffffffffffffffffff82169050919050565b6000819050919050565b82818337600083830152505050565b60005b838110156131f65780820151818401526020810190506131db565b83811115613205576000848401525b50505050565b6000600282049050600182168061322357607f821691505b60208210811415613237576132366132e4565b5b50919050565b6000613248826131bf565b91507fffffffffffffffffffffffffffffffffffffffffffffffffffffffffffffffff82141561327b5761327a613286565b5b600182019050919050565b7f4e487b7100000000000000000000000000000000000000000000000000000000600052601160045260246000fd5b7f4e487b7100000000000000000000000000000000000000000000000000000000600052601260045260246000fd5b7f4e487b7100000000000000000000000000000000000000000000000000000000600052602260045260246000fd5b7f4e487b7100000000000000000000000000000000000000000000000000000000600052604160045260246000fd5b6000601f19601f8301169050919050565b61335c81613181565b811461336757600080fd5b50565b613373816131bf565b811461337e57600080fd5b5056fea2646970667358221220acccc91a7994ab0768890c7e1d786c5ebdae69d556b5d86e769557d7a527494164736f6c63430008000033",
  "immutableReferences": {},
  "source": "// SPDX-License-Identifier: MIT\r\npragma solidity ^0.8.0;\r\n\r\ncontract TenderBidding {\r\n\r\n    struct Bidder {\r\n        string name; // Bidder's name\r\n        uint256 amount; // Bidder's bid amount\r\n    }\r\n\r\n    struct Tender {\r\n        string uniqueKey; // Unique key in the format \"latitude_longitude\"\r\n        bool isClosed; // If the tender is closed or not\r\n        address winner; // The winner of the tender\r\n        uint256 lowestBid; // The lowest bid amount\r\n        uint256 baseAmount; // Base amount set during tender creation\r\n        Bidder[] bids; // List of all bids placed for this tender\r\n    }\r\n\r\n    mapping(string => Tender) public tenders;\r\n    string[] public tenderKeys;\r\n\r\n    mapping(address => string) public bidderNames;\r\n    mapping(address => bool) public admins;\r\n\r\n    address[] public registeredBidders; // Track all registered bidders\r\n\r\n    mapping(address => string[]) public bidderTenders; // Track tenders a bidder has participated in\r\n\r\n    modifier onlyAdmin() {\r\n        require(admins[msg.sender], \"You are not the admin\");\r\n        _;\r\n    }\r\n\r\n    modifier tenderExists(string memory _key) {\r\n        require(bytes(tenders[_key].uniqueKey).length != 0, \"Tender does not exist\");\r\n        _;\r\n    }\r\n\r\n    function createAdmin(string memory _name) public {\r\n        require(bytes(bidderNames[msg.sender]).length == 0, \"Admin already exists\");\r\n        admins[msg.sender] = true;\r\n        bidderNames[msg.sender] = _name;\r\n    }\r\n\r\n    function registerBidder(string memory _name) public {\r\n        require(bytes(bidderNames[msg.sender]).length == 0, \"Bidder already registered\");\r\n        bidderNames[msg.sender] = _name;\r\n        registeredBidders.push(msg.sender); // Add to registered bidders list\r\n    }\r\n\r\n    function createTender(string memory _latitude, string memory _longitude, uint256 _baseAmount) public onlyAdmin {\r\n        string memory tenderKey = string(abi.encodePacked(_latitude, \"_\", _longitude));\r\n        require(bytes(tenders[tenderKey].uniqueKey).length == 0, \"Tender already exists\");\r\n\r\n        Tender storage newTender = tenders[tenderKey];\r\n        newTender.uniqueKey = tenderKey;\r\n        newTender.isClosed = false;\r\n        newTender.lowestBid = type(uint256).max;\r\n        newTender.baseAmount = _baseAmount;\r\n\r\n        tenderKeys.push(tenderKey);\r\n        emit TenderCreated(tenderKey, _baseAmount);\r\n    }\r\n\r\n    function placeBid(string memory _tenderKey, uint256 _amount) public tenderExists(_tenderKey) {\r\n        Tender storage tender = tenders[_tenderKey];\r\n        require(!tender.isClosed, \"Tender is closed\");\r\n        require(bytes(bidderNames[msg.sender]).length > 0, \"You must be a registered bidder\");\r\n        require(_amount <= (tender.baseAmount * 110) / 100, \"Bid exceeds 110% of base amount\");\r\n\r\n        tender.bids.push(Bidder({name: bidderNames[msg.sender], amount: _amount}));\r\n\r\n        sortBids(tender);\r\n\r\n        if (_amount < tender.lowestBid) {\r\n            tender.lowestBid = _amount;\r\n            tender.winner = msg.sender;\r\n        }\r\n\r\n        // Track the tender for the bidder\r\n        bool alreadyAdded = false;\r\n        for (uint256 i = 0; i < bidderTenders[msg.sender].length; i++) {\r\n            if (keccak256(abi.encodePacked(bidderTenders[msg.sender][i])) == keccak256(abi.encodePacked(_tenderKey))) {\r\n                alreadyAdded = true;\r\n                break;\r\n            }\r\n        }\r\n        if (!alreadyAdded) {\r\n            bidderTenders[msg.sender].push(_tenderKey);\r\n        }\r\n    }\r\n\r\n    function sortBids(Tender storage _tender) internal {\r\n        uint256 length = _tender.bids.length;\r\n        for (uint256 i = 0; i < length - 1; i++) {\r\n            for (uint256 j = i + 1; j < length; j++) {\r\n                if (_tender.bids[i].amount > _tender.bids[j].amount) {\r\n                    Bidder memory tempBid = _tender.bids[i];\r\n                    _tender.bids[i] = _tender.bids[j];\r\n                    _tender.bids[j] = tempBid;\r\n                }\r\n            }\r\n        }\r\n    }\r\n\r\n    function closeTender(string memory _tenderKey) public onlyAdmin tenderExists(_tenderKey) {\r\n        Tender storage tender = tenders[_tenderKey];\r\n        require(!tender.isClosed, \"Tender is already closed\");\r\n\r\n        tender.isClosed = true;\r\n        emit TenderClosed(_tenderKey, tender.winner, tender.lowestBid);\r\n    }\r\n\r\n    function listOpenTenders() public view returns (string[] memory, uint256[] memory) {\r\n        uint256 openCount = 0;\r\n        for (uint256 i = 0; i < tenderKeys.length; i++) {\r\n            if (!tenders[tenderKeys[i]].isClosed) {\r\n                openCount++;\r\n            }\r\n        }\r\n\r\n        string[] memory keys = new string[](openCount);\r\n        uint256[] memory baseAmounts = new uint256[](openCount);\r\n\r\n        uint256 index = 0;\r\n        for (uint256 i = 0; i < tenderKeys.length; i++) {\r\n            if (!tenders[tenderKeys[i]].isClosed) {\r\n                keys[index] = tenderKeys[i];\r\n                baseAmounts[index] = tenders[tenderKeys[i]].baseAmount;\r\n                index++;\r\n            }\r\n        }\r\n\r\n        return (keys, baseAmounts);\r\n    }\r\n\r\n    function listClosedTenders() public view returns (string[] memory, string[] memory, uint256[] memory) {\r\n        uint256 closedCount = 0;\r\n        for (uint256 i = 0; i < tenderKeys.length; i++) {\r\n            if (tenders[tenderKeys[i]].isClosed) {\r\n                closedCount++;\r\n            }\r\n        }\r\n\r\n        string[] memory keys = new string[](closedCount);\r\n        string[] memory winnerNames = new string[](closedCount);\r\n        uint256[] memory amounts = new uint256[](closedCount);\r\n\r\n        uint256 index = 0;\r\n        for (uint256 i = 0; i < tenderKeys.length; i++) {\r\n            if (tenders[tenderKeys[i]].isClosed) {\r\n                keys[index] = tenderKeys[i];\r\n                winnerNames[index] = bidderNames[tenders[tenderKeys[i]].winner];\r\n                amounts[index] = tenders[tenderKeys[i]].lowestBid;\r\n                index++;\r\n            }\r\n        }\r\n\r\n        return (keys, winnerNames, amounts);\r\n    }\r\n\r\n    function listBidders() public view returns (address[] memory, string[] memory) {\r\n        uint256 bidderCount = registeredBidders.length;\r\n\r\n        address[] memory addresses = new address[](bidderCount);\r\n        string[] memory names = new string[](bidderCount);\r\n\r\n        for (uint256 i = 0; i < bidderCount; i++) {\r\n            addresses[i] = registeredBidders[i];\r\n            names[i] = bidderNames[registeredBidders[i]];\r\n        }\r\n\r\n        return (addresses, names);\r\n    }\r\n\r\n    event TenderCreated(string tenderKey, uint256 baseAmount);\r\n    event TenderClosed(string tenderKey, address winner, uint256 lowestBid);\r\n}",
  "sourcePath": "D:\\Hackathons\\pothole-detection-project\\contracts\\TenderBidding.sol",
  "compiler": {
    "name": "solc",
    "version": "0.8.0+commit.c7dfd78e.Emscripten.clang"
  },
  "schemaVersion": "3.4.16",
  "updatedAt": "2024-11-16T14:18:12.908Z",
  "devdoc": {
    "kind": "dev",
    "methods": {},
    "version": 1
  },
  "userdoc": {
    "kind": "user",
    "methods": {},
    "version": 1
  }
}