{
  "_format": "hh-sol-artifact-1",
  "contractName": "TenderBidding",
  "sourceName": "contracts/TenderBidding.sol",
  "abi": [
    {
      "inputs": [],
      "stateMutability": "nonpayable",
      "type": "constructor"
    },
    {
      "anonymous": false,
      "inputs": [
        {
          "indexed": true,
          "internalType": "bytes32",
          "name": "projectKey",
          "type": "bytes32"
        },
        {
          "indexed": true,
          "internalType": "address",
          "name": "contractor",
          "type": "address"
        },
        {
          "indexed": false,
          "internalType": "uint256",
          "name": "amount",
          "type": "uint256"
        },
        {
          "indexed": false,
          "internalType": "uint256",
          "name": "rankingScore",
          "type": "uint256"
        }
      ],
      "name": "BidPlaced",
      "type": "event"
    },
    {
      "anonymous": false,
      "inputs": [
        {
          "indexed": true,
          "internalType": "bytes32",
          "name": "projectKey",
          "type": "bytes32"
        }
      ],
      "name": "CompletionVerified",
      "type": "event"
    },
    {
      "anonymous": false,
      "inputs": [
        {
          "indexed": true,
          "internalType": "bytes32",
          "name": "projectKey",
          "type": "bytes32"
        },
        {
          "indexed": true,
          "internalType": "address",
          "name": "contractor",
          "type": "address"
        },
        {
          "indexed": false,
          "internalType": "uint256",
          "name": "amount",
          "type": "uint256"
        }
      ],
      "name": "PaymentReleased",
      "type": "event"
    },
    {
      "anonymous": false,
      "inputs": [
        {
          "indexed": true,
          "internalType": "bytes32",
          "name": "projectKey",
          "type": "bytes32"
        },
        {
          "indexed": false,
          "internalType": "string",
          "name": "reportId",
          "type": "string"
        },
        {
          "indexed": false,
          "internalType": "uint256",
          "name": "estimatedCost",
          "type": "uint256"
        }
      ],
      "name": "ProjectCreated",
      "type": "event"
    },
    {
      "anonymous": false,
      "inputs": [
        {
          "indexed": true,
          "internalType": "bytes32",
          "name": "projectKey",
          "type": "bytes32"
        },
        {
          "indexed": true,
          "internalType": "address",
          "name": "contractor",
          "type": "address"
        },
        {
          "indexed": false,
          "internalType": "uint256",
          "name": "amount",
          "type": "uint256"
        }
      ],
      "name": "WinnerSelected",
      "type": "event"
    },
    {
      "anonymous": false,
      "inputs": [
        {
          "indexed": true,
          "internalType": "bytes32",
          "name": "projectKey",
          "type": "bytes32"
        },
        {
          "indexed": true,
          "internalType": "address",
          "name": "contractor",
          "type": "address"
        }
      ],
      "name": "WorkCompleted",
      "type": "event"
    },
    {
      "anonymous": false,
      "inputs": [
        {
          "indexed": true,
          "internalType": "bytes32",
          "name": "projectKey",
          "type": "bytes32"
        },
        {
          "indexed": true,
          "internalType": "address",
          "name": "contractor",
          "type": "address"
        }
      ],
      "name": "WorkStarted",
      "type": "event"
    },
    {
      "inputs": [
        {
          "internalType": "address",
          "name": "",
          "type": "address"
        }
      ],
      "name": "admins",
      "outputs": [
        {
          "internalType": "bool",
          "name": "",
          "type": "bool"
        }
      ],
      "stateMutability": "view",
      "type": "function"
    },
    {
      "inputs": [
        {
          "internalType": "address",
          "name": "",
          "type": "address"
        }
      ],
      "name": "contractors",
      "outputs": [
        {
          "internalType": "bool",
          "name": "",
          "type": "bool"
        }
      ],
      "stateMutability": "view",
      "type": "function"
    },
    {
      "inputs": [
        {
          "internalType": "string",
          "name": "reportId",
          "type": "string"
        },
        {
          "internalType": "string",
          "name": "locationKey",
          "type": "string"
        },
        {
          "internalType": "uint256",
          "name": "estimatedCost",
          "type": "uint256"
        }
      ],
      "name": "createProject",
      "outputs": [
        {
          "internalType": "bytes32",
          "name": "",
          "type": "bytes32"
        }
      ],
      "stateMutability": "payable",
      "type": "function"
    },
    {
      "inputs": [
        {
          "internalType": "bytes32",
          "name": "projectKey",
          "type": "bytes32"
        },
        {
          "internalType": "address",
          "name": "contractor",
          "type": "address"
        }
      ],
      "name": "getBid",
      "outputs": [
        {
          "components": [
            {
              "internalType": "address",
              "name": "contractor",
              "type": "address"
            },
            {
              "internalType": "uint256",
              "name": "amount",
              "type": "uint256"
            },
            {
              "internalType": "uint256",
              "name": "rankingScore",
              "type": "uint256"
            },
            {
              "internalType": "string",
              "name": "metadataURI",
              "type": "string"
            },
            {
              "internalType": "bool",
              "name": "exists",
              "type": "bool"
            }
          ],
          "internalType": "struct TenderBidding.Bid",
          "name": "",
          "type": "tuple"
        }
      ],
      "stateMutability": "view",
      "type": "function"
    },
    {
      "inputs": [
        {
          "internalType": "bytes32",
          "name": "projectKey",
          "type": "bytes32"
        }
      ],
      "name": "getProject",
      "outputs": [
        {
          "components": [
            {
              "internalType": "string",
              "name": "reportId",
              "type": "string"
            },
            {
              "internalType": "string",
              "name": "locationKey",
              "type": "string"
            },
            {
              "internalType": "uint256",
              "name": "estimatedCost",
              "type": "uint256"
            },
            {
              "internalType": "enum TenderBidding.ProjectStatus",
              "name": "status",
              "type": "uint8"
            },
            {
              "internalType": "address",
              "name": "winner",
              "type": "address"
            },
            {
              "internalType": "uint256",
              "name": "winningBid",
              "type": "uint256"
            },
            {
              "internalType": "uint256",
              "name": "escrow",
              "type": "uint256"
            },
            {
              "internalType": "address[]",
              "name": "bidders",
              "type": "address[]"
            },
            {
              "internalType": "bool",
              "name": "exists",
              "type": "bool"
            }
          ],
          "internalType": "struct TenderBidding.Project",
          "name": "",
          "type": "tuple"
        }
      ],
      "stateMutability": "view",
      "type": "function"
    },
    {
      "inputs": [
        {
          "internalType": "bytes32",
          "name": "projectKey",
          "type": "bytes32"
        }
      ],
      "name": "listBidders",
      "outputs": [
        {
          "internalType": "address[]",
          "name": "",
          "type": "address[]"
        }
      ],
      "stateMutability": "view",
      "type": "function"
    },
    {
      "inputs": [],
      "name": "listProjects",
      "outputs": [
        {
          "internalType": "bytes32[]",
          "name": "",
          "type": "bytes32[]"
        }
      ],
      "stateMutability": "view",
      "type": "function"
    },
    {
      "inputs": [
        {
          "internalType": "bytes32",
          "name": "projectKey",
          "type": "bytes32"
        }
      ],
      "name": "markCompleted",
      "outputs": [],
      "stateMutability": "nonpayable",
      "type": "function"
    },
    {
      "inputs": [
        {
          "internalType": "bytes32",
          "name": "projectKey",
          "type": "bytes32"
        }
      ],
      "name": "markWorkStarted",
      "outputs": [],
      "stateMutability": "nonpayable",
      "type": "function"
    },
    {
      "inputs": [],
      "name": "owner",
      "outputs": [
        {
          "internalType": "address",
          "name": "",
          "type": "address"
        }
      ],
      "stateMutability": "view",
      "type": "function"
    },
    {
      "inputs": [],
      "name": "registerContractor",
      "outputs": [],
      "stateMutability": "nonpayable",
      "type": "function"
    },
    {
      "inputs": [
        {
          "internalType": "bytes32",
          "name": "projectKey",
          "type": "bytes32"
        }
      ],
      "name": "releaseFunds",
      "outputs": [],
      "stateMutability": "nonpayable",
      "type": "function"
    },
    {
      "inputs": [
        {
          "internalType": "bytes32",
          "name": "projectKey",
          "type": "bytes32"
        },
        {
          "internalType": "address",
          "name": "contractor",
          "type": "address"
        }
      ],
      "name": "selectWinner",
      "outputs": [],
      "stateMutability": "nonpayable",
      "type": "function"
    },
    {
      "inputs": [
        {
          "internalType": "address",
          "name": "account",
          "type": "address"
        },
        {
          "internalType": "bool",
          "name": "enabled",
          "type": "bool"
        }
      ],
      "name": "setAdmin",
      "outputs": [],
      "stateMutability": "nonpayable",
      "type": "function"
    },
    {
      "inputs": [
        {
          "internalType": "bytes32",
          "name": "projectKey",
          "type": "bytes32"
        },
        {
          "internalType": "uint256",
          "name": "amount",
          "type": "uint256"
        },
        {
          "internalType": "uint256",
          "name": "rankingScore",
          "type": "uint256"
        },
        {
          "internalType": "string",
          "name": "metadataURI",
          "type": "string"
        }
      ],
      "name": "submitBid",
      "outputs": [],
      "stateMutability": "nonpayable",
      "type": "function"
    },
    {
      "inputs": [
        {
          "internalType": "bytes32",
          "name": "projectKey",
          "type": "bytes32"
        }
      ],
      "name": "verifyCompletion",
      "outputs": [],
      "stateMutability": "nonpayable",
      "type": "function"
    }
  ],
  "bytecode": "0x608060405234801561001057600080fd5b50600080546001600160a01b0319163390811782558152600160208190526040909120805460ff19169091179055611ca18061004d6000396000f3fe6080604052600436106100f35760003560e01c80636b869f9a1161008a578063c5737fba11610059578063c5737fba146102a3578063c92ee043146102c3578063d0ba5264146102e3578063e35569a614610310576100f3565b80636b869f9a146102215780638ad2bdb4146102415780638da5cb5b14610261578063ac43e7b014610283576100f3565b8063429b62e5116100c6578063429b62e5146101855780634b0bddd2146101b25780634b5f748a146101d25780634c962f40146101ff576100f3565b806314ea63f4146100f85780631ed907a51461011a57806323c554481461012f5780633cee45f914610158575b600080fd5b34801561010457600080fd5b506101186101133660046115b6565b610330565b005b34801561012657600080fd5b506101186104bf565b61014261013d366004611640565b6104db565b60405161014f919061182b565b60405180910390f35b34801561016457600080fd5b5061017861017336600461159e565b61067a565b60405161014f919061179b565b34801561019157600080fd5b506101a56101a0366004611543565b61071f565b60405161014f9190611820565b3480156101be57600080fd5b506101186101cd366004611564565b610734565b3480156101de57600080fd5b506101f26101ed36600461159e565b610789565b60405161014f9190611b43565b34801561020b57600080fd5b50610214610a17565b60405161014f91906117e8565b34801561022d57600080fd5b5061011861023c36600461159e565b610a6f565b34801561024d57600080fd5b5061011861025c36600461159e565b610b69565b34801561026d57600080fd5b50610276610c5e565b60405161014f9190611787565b34801561028f57600080fd5b5061011861029e3660046115e1565b610c6d565b3480156102af57600080fd5b506101186102be36600461159e565b610ef4565b3480156102cf57600080fd5b506101186102de36600461159e565b610ff0565b3480156102ef57600080fd5b506103036102fe3660046115b6565b6111d6565b60405161014f9190611ae9565b34801561031c57600080fd5b506101a561032b366004611543565b61131a565b3360009081526001602052604090205460ff166103685760405162461bcd60e51b815260040161035f906119a8565b60405180910390fd5b600082815260036020526040902060070154829060ff1661039b5760405162461bcd60e51b815260040161035f90611a45565b60008381526003602052604090206001600382015460ff1660068111156103d257634e487b7160e01b600052602160045260246000fd5b146103ef5760405162461bcd60e51b815260040161035f906119cc565b60008481526004602081815260408084206001600160a01b03881685529091529091209081015460ff166104355760405162461bcd60e51b815260040161035f90611954565b600382018054610100600160a81b0319166101006001600160a01b038716021780825560018381015460048601556002929160ff191690830217905550836001600160a01b0316857f0de9133ae9f24b7424a923e1bf901ed2381ee3e99707ff9b9b696602199b3dcc83600101546040516104b0919061182b565b60405180910390a35050505050565b336000908152600260205260409020805460ff19166001179055565b3360009081526001602052604081205460ff1661050a5760405162461bcd60e51b815260040161035f906119a8565b846105275760405162461bcd60e51b815260040161035f9061192b565b600082116105475760405162461bcd60e51b815260040161035f90611abe565b6000868660405160200161055c929190611774565b60408051601f1981840301815291815281516020928301206000818152600390935291206007015490915060ff16156105a75760405162461bcd60e51b815260040161035f90611890565b60008181526003602052604090206105c081898961132f565b506105cf60018201878761132f565b5060028101849055600381018054600160ff199182168117909255346005808501919091556007840180549092168317909155805491820181556000527f036b6384b5eca791c62761152d0c79bb0604c104a5fb6f4eb0703f3154bb3db00182905560405182907ff965cfecadbc0db3f6b3bb35915660711976429b9f72f84dc50b011522d9766190610667908b908b908990611834565b60405180910390a2509695505050505050565b600081815260036020526040902060070154606090829060ff166106b05760405162461bcd60e51b815260040161035f90611a45565b6000838152600360209081526040918290206006018054835181840281018401909452808452909183018282801561071157602002820191906000526020600020905b81546001600160a01b031681526001909101906020018083116106f3575b505050505091505b50919050565b60016020526000908152604090205460ff1681565b6000546001600160a01b0316331461075e5760405162461bcd60e51b815260040161035f90611907565b6001600160a01b03919091166000908152600160205260409020805460ff1916911515919091179055565b6107916113b3565b600082815260036020526040902060070154829060ff166107c45760405162461bcd60e51b815260040161035f90611a45565b60008381526003602052604090819020815161012081019092528054829082906107ed90611c36565b80601f016020809104026020016040519081016040528092919081815260200182805461081990611c36565b80156108665780601f1061083b57610100808354040283529160200191610866565b820191906000526020600020905b81548152906001019060200180831161084957829003601f168201915b5050505050815260200160018201805461087f90611c36565b80601f01602080910402602001604051908101604052809291908181526020018280546108ab90611c36565b80156108f85780601f106108cd576101008083540402835291602001916108f8565b820191906000526020600020905b8154815290600101906020018083116108db57829003601f168201915b505050918352505060028201546020820152600382015460409091019060ff16600681111561093757634e487b7160e01b600052602160045260246000fd5b600681111561095657634e487b7160e01b600052602160045260246000fd5b81526020016003820160019054906101000a90046001600160a01b03166001600160a01b03166001600160a01b031681526020016004820154815260200160058201548152602001600682018054806020026020016040519081016040528092919081815260200182805480156109f657602002820191906000526020600020905b81546001600160a01b031681526001909101906020018083116109d8575b50505091835250506007919091015460ff1615156020909101529392505050565b60606005805480602002602001604051908101604052809291908181526020018280548015610a6557602002820191906000526020600020905b815481526020019060010190808311610a51575b5050505050905090565b600081815260036020526040902060070154819060ff16610aa25760405162461bcd60e51b815260040161035f90611a45565b60008281526003602081905260409091209081015461010090046001600160a01b03163314610ae35760405162461bcd60e51b815260040161035f90611a99565b60038082015460ff166006811115610b0b57634e487b7160e01b600052602160045260246000fd5b14610b285760405162461bcd60e51b815260040161035f906119cc565b60038101805460ff19166004179055604051339084907f79f3dab5ed727cf6ab77163db2abf0482e2cea37627ae846d705e94920127b5f90600090a3505050565b3360009081526001602052604090205460ff16610b985760405162461bcd60e51b815260040161035f906119a8565b600081815260036020526040902060070154819060ff16610bcb5760405162461bcd60e51b815260040161035f90611a45565b60008281526003602052604090206004600382015460ff166006811115610c0257634e487b7160e01b600052602160045260246000fd5b14610c1f5760405162461bcd60e51b815260040161035f906119cc565b60038101805460ff1916600517905560405183907fd1fda03ea10ed1ba3f2d8c51f39ff832b578a008ef299c6312bff37bb5ed09f290600090a2505050565b6000546001600160a01b031681565b3360009081526002602052604090205460ff16610c9c5760405162461bcd60e51b815260040161035f90611a1c565b600085815260036020526040902060070154859060ff16610ccf5760405162461bcd60e51b815260040161035f90611a45565b60008681526003602052604090206001600382015460ff166006811115610d0657634e487b7160e01b600052602160045260246000fd5b14610d235760405162461bcd60e51b815260040161035f906118b8565b60008611610d435760405162461bcd60e51b815260040161035f90611a70565b6064851115610d645760405162461bcd60e51b815260040161035f906118e0565b6000878152600460208181526040808420338552909152909120015460ff1615610da05760405162461bcd60e51b815260040161035f9061186c565b6040518060a00160405280336001600160a01b0316815260200187815260200186815260200185858080601f01602080910402602001604051908101604052809392919081815260200183838082843760009201829052509385525050600160209384018190528b8352600484526040808420338552855292839020855181546001600160a01b0319166001600160a01b03909116178155858501519181019190915591840151600283015550606083015180519192610e689260038501929091019061141d565b50608091909101516004909101805460ff191691151591909117905560068101805460018101825560009182526020909120018054336001600160a01b0319909116811790915560405188907faaddb1daa68f2c899bf123296e7c6175854ccf8ca96e733fb37813a1fbe78ec890610ee3908a908a90611c05565b60405180910390a350505050505050565b600081815260036020526040902060070154819060ff16610f275760405162461bcd60e51b815260040161035f90611a45565b60008281526003602081905260409091209081015461010090046001600160a01b03163314610f685760405162461bcd60e51b815260040161035f90611a99565b6002600382015460ff166006811115610f9157634e487b7160e01b600052602160045260246000fd5b14610fae5760405162461bcd60e51b815260040161035f906119cc565b6003818101805460ff19169091179055604051339084907fc2db0ec3c90a2247626aabacf7d093d664395034261f080c94ba502500d0754690600090a3505050565b3360009081526001602052604090205460ff1661101f5760405162461bcd60e51b815260040161035f906119a8565b600081815260036020526040902060070154819060ff166110525760405162461bcd60e51b815260040161035f90611a45565b60008281526003602052604090206005600382015460ff16600681111561108957634e487b7160e01b600052602160045260246000fd5b146110a65760405162461bcd60e51b815260040161035f906119cc565b8060040154816005015410156110ce5760405162461bcd60e51b815260040161035f9061197b565b600081600401549050808260050160008282546110eb9190611c13565b909155505060038201805460ff1916600617908190556040516000916001600160a01b036101009091041690839061112290611784565b60006040518083038185875af1925050503d806000811461115f576040519150601f19603f3d011682016040523d82523d6000602084013e611164565b606091505b50509050806111855760405162461bcd60e51b815260040161035f906119f4565b8260030160019054906101000a90046001600160a01b03166001600160a01b0316857f1e170c3b430cc6fdcdaa453c42619ac587e13793aa81a489fab9ebd7019c2efb846040516104b0919061182b565b6111de611491565b60008381526004602081815260408084206001600160a01b0387168552909152909120015460ff166112225760405162461bcd60e51b815260040161035f90611954565b60008381526004602090815260408083206001600160a01b03808716855290835292819020815160a0810183528154909416845260018101549284019290925260028201549083015260038101805460608401919061128090611c36565b80601f01602080910402602001604051908101604052809291908181526020018280546112ac90611c36565b80156112f95780601f106112ce576101008083540402835291602001916112f9565b820191906000526020600020905b8154815290600101906020018083116112dc57829003601f168201915b50505091835250506004919091015460ff1615156020909101529392505050565b60026020526000908152604090205460ff1681565b82805461133b90611c36565b90600052602060002090601f01602090048101928261135d57600085556113a3565b82601f106113765782800160ff198235161785556113a3565b828001600101855582156113a3579182015b828111156113a3578235825591602001919060010190611388565b506113af9291506114cb565b5090565b604051806101200160405280606081526020016060815260200160008152602001600060068111156113f557634e487b7160e01b600052602160045260246000fd5b8152600060208201819052604082018190526060808301829052608083015260a09091015290565b82805461142990611c36565b90600052602060002090601f01602090048101928261144b57600085556113a3565b82601f1061146457805160ff19168380011785556113a3565b828001600101855582156113a3579182015b828111156113a3578251825591602001919060010190611476565b6040518060a0016040528060006001600160a01b031681526020016000815260200160008152602001606081526020016000151581525090565b5b808211156113af57600081556001016114cc565b80356001600160a01b03811681146114f757600080fd5b919050565b60008083601f84011261150d578182fd5b50813567ffffffffffffffff811115611524578182fd5b60208301915083602082850101111561153c57600080fd5b9250929050565b600060208284031215611554578081fd5b61155d826114e0565b9392505050565b60008060408385031215611576578081fd5b61157f836114e0565b915060208301358015158114611593578182fd5b809150509250929050565b6000602082840312156115af578081fd5b5035919050565b600080604083850312156115c8578182fd5b823591506115d8602084016114e0565b90509250929050565b6000806000806000608086880312156115f8578081fd5b853594506020860135935060408601359250606086013567ffffffffffffffff811115611623578182fd5b61162f888289016114fc565b969995985093965092949392505050565b600080600080600060608688031215611657578081fd5b853567ffffffffffffffff8082111561166e578283fd5b61167a89838a016114fc565b90975095506020880135915080821115611692578283fd5b5061169f888289016114fc565b96999598509660400135949350505050565b6001600160a01b03169052565b6000815180845260208085019450808401835b838110156116f65781516001600160a01b0316875295820195908201906001016116d1565b509495945050505050565b15159052565b6007811061172557634e487b7160e01b600052602160045260246000fd5b9052565b60008151808452815b8181101561174e57602081850181015186830182015201611732565b8181111561175f5782602083870101525b50601f01601f19169290920160200192915050565b6000828483379101908152919050565b90565b6001600160a01b0391909116815260200190565b6020808252825182820181905260009190848201906040850190845b818110156117dc5783516001600160a01b0316835292840192918401916001016117b7565b50909695505050505050565b6020808252825182820181905260009190848201906040850190845b818110156117dc57835183529284019291840191600101611804565b901515815260200190565b90815260200190565b6000604082528360408301528385606084013780606085840101526060601f19601f8601168301019050826020830152949350505050565b6020808252600a90820152694269642065786973747360b01b604082015260600190565b6020808252600e908201526d50726f6a6563742065786973747360901b604082015260600190565b6020808252600e908201526d109a59191a5b99c818db1bdcd95960921b604082015260600190565b6020808252600d908201526c496e76616c69642073636f726560981b604082015260600190565b6020808252600a908201526927b7363c9037bbb732b960b11b604082015260600190565b6020808252600f908201526e14995c1bdc9d081c995c5d5a5c9959608a1b604082015260600190565b6020808252600d908201526c109a59081b9bdd08199bdd5b99609a1b604082015260600190565b602080825260139082015272496e73756666696369656e7420657363726f7760681b604082015260600190565b6020808252600a908201526927b7363c9030b236b4b760b11b604082015260600190565b6020808252600e908201526d496e76616c69642073746174757360901b604082015260600190565b6020808252600e908201526d14185e5b595b9d0819985a5b195960921b604082015260600190565b6020808252600f908201526e27b7363c9031b7b73a3930b1ba37b960891b604082015260600190565b602080825260119082015270141c9bda9958dd081b9bdd08199bdd5b99607a1b604082015260600190565b6020808252600f908201526e105b5bdd5b9d081c995c5d5a5c9959608a1b604082015260600190565b6020808252600b908201526a27b7363c903bb4b73732b960a91b604082015260600190565b602080825260119082015270115cdd1a5b585d19481c995c5d5a5c9959607a1b604082015260600190565b60006020825260018060a01b0383511660208301526020830151604083015260408301516060830152606083015160a06080840152611b2b60c0840182611729565b90506080840151151560a08401528091505092915050565b6000602082528251610120806020850152611b62610140850183611729565b91506020850151601f1980868503016040870152611b808483611729565b93506040870151606087015260608701519150611ba06080870183611707565b60808701519150611bb460a08701836116b1565b60a087015160c087015260c087015160e087015260e08701519150610100818786030181880152611be585846116be565b94508088015192505050611bfb82860182611701565b5090949350505050565b918252602082015260400190565b600082821015611c3157634e487b7160e01b81526011600452602481fd5b500390565b600281046001821680611c4a57607f821691505b6020821081141561071957634e487b7160e01b600052602260045260246000fdfea26469706673582212208ab4a942580204e8aea1a5ba96d4f6c2a0bef2c77c66b6f479bc67883dfd4eac64736f6c63430008000033",
  "linkReferences": {},
  "deployedLinkReferences": {}
}